{
  "_format": "hh-sol-artifact-1",
  "contractName": "ImmutableNFT",
  "sourceName": "contracts/ImmutableNFT.sol",
  "abi": [
    {
      "inputs": [],
      "stateMutability": "nonpayable",
      "type": "constructor"
    },
    {
      "anonymous": false,
      "inputs": [
        {
          "indexed": true,
          "internalType": "address",
          "name": "owner",
          "type": "address"
        },
        {
          "indexed": true,
          "internalType": "address",
          "name": "approved",
          "type": "address"
        },
        {
          "indexed": true,
          "internalType": "uint256",
          "name": "tokenId",
          "type": "uint256"
        }
      ],
      "name": "Approval",
      "type": "event"
    },
    {
      "anonymous": false,
      "inputs": [
        {
          "indexed": true,
          "internalType": "address",
          "name": "owner",
          "type": "address"
        },
        {
          "indexed": true,
          "internalType": "address",
          "name": "operator",
          "type": "address"
        },
        {
          "indexed": false,
          "internalType": "bool",
          "name": "approved",
          "type": "bool"
        }
      ],
      "name": "ApprovalForAll",
      "type": "event"
    },
    {
      "anonymous": false,
      "inputs": [
        {
          "indexed": false,
          "internalType": "uint256",
          "name": "tokenID",
          "type": "uint256"
        },
        {
          "indexed": false,
          "internalType": "address",
          "name": "from",
          "type": "address"
        },
        {
          "indexed": false,
          "internalType": "address",
          "name": "to",
          "type": "address"
        },
        {
          "indexed": false,
          "internalType": "string",
          "name": "tokenURI",
          "type": "string"
        },
        {
          "indexed": false,
          "internalType": "uint256",
          "name": "price",
          "type": "uint256"
        }
      ],
      "name": "NFTTransfer",
      "type": "event"
    },
    {
      "anonymous": false,
      "inputs": [
        {
          "indexed": true,
          "internalType": "address",
          "name": "from",
          "type": "address"
        },
        {
          "indexed": true,
          "internalType": "address",
          "name": "to",
          "type": "address"
        },
        {
          "indexed": true,
          "internalType": "uint256",
          "name": "tokenId",
          "type": "uint256"
        }
      ],
      "name": "Transfer",
      "type": "event"
    },
    {
      "inputs": [
        {
          "internalType": "address",
          "name": "to",
          "type": "address"
        },
        {
          "internalType": "uint256",
          "name": "tokenId",
          "type": "uint256"
        }
      ],
      "name": "approve",
      "outputs": [],
      "stateMutability": "nonpayable",
      "type": "function"
    },
    {
      "inputs": [
        {
          "internalType": "address",
          "name": "owner",
          "type": "address"
        }
      ],
      "name": "balanceOf",
      "outputs": [
        {
          "internalType": "uint256",
          "name": "",
          "type": "uint256"
        }
      ],
      "stateMutability": "view",
      "type": "function"
    },
    {
      "inputs": [
        {
          "internalType": "string",
          "name": "tokenURI",
          "type": "string"
        }
      ],
      "name": "createNFT",
      "outputs": [],
      "stateMutability": "nonpayable",
      "type": "function"
    },
    {
      "inputs": [
        {
          "internalType": "uint256",
          "name": "tokenId",
          "type": "uint256"
        }
      ],
      "name": "getApproved",
      "outputs": [
        {
          "internalType": "address",
          "name": "",
          "type": "address"
        }
      ],
      "stateMutability": "view",
      "type": "function"
    },
    {
      "inputs": [
        {
          "internalType": "address",
          "name": "owner",
          "type": "address"
        },
        {
          "internalType": "address",
          "name": "operator",
          "type": "address"
        }
      ],
      "name": "isApprovedForAll",
      "outputs": [
        {
          "internalType": "bool",
          "name": "",
          "type": "bool"
        }
      ],
      "stateMutability": "view",
      "type": "function"
    },
    {
      "inputs": [],
      "name": "name",
      "outputs": [
        {
          "internalType": "string",
          "name": "",
          "type": "string"
        }
      ],
      "stateMutability": "view",
      "type": "function"
    },
    {
      "inputs": [
        {
          "internalType": "uint256",
          "name": "tokenId",
          "type": "uint256"
        }
      ],
      "name": "ownerOf",
      "outputs": [
        {
          "internalType": "address",
          "name": "",
          "type": "address"
        }
      ],
      "stateMutability": "view",
      "type": "function"
    },
    {
      "inputs": [
        {
          "internalType": "address",
          "name": "from",
          "type": "address"
        },
        {
          "internalType": "address",
          "name": "to",
          "type": "address"
        },
        {
          "internalType": "uint256",
          "name": "tokenId",
          "type": "uint256"
        }
      ],
      "name": "safeTransferFrom",
      "outputs": [],
      "stateMutability": "nonpayable",
      "type": "function"
    },
    {
      "inputs": [
        {
          "internalType": "address",
          "name": "from",
          "type": "address"
        },
        {
          "internalType": "address",
          "name": "to",
          "type": "address"
        },
        {
          "internalType": "uint256",
          "name": "tokenId",
          "type": "uint256"
        },
        {
          "internalType": "bytes",
          "name": "data",
          "type": "bytes"
        }
      ],
      "name": "safeTransferFrom",
      "outputs": [],
      "stateMutability": "nonpayable",
      "type": "function"
    },
    {
      "inputs": [
        {
          "internalType": "address",
          "name": "operator",
          "type": "address"
        },
        {
          "internalType": "bool",
          "name": "approved",
          "type": "bool"
        }
      ],
      "name": "setApprovalForAll",
      "outputs": [],
      "stateMutability": "nonpayable",
      "type": "function"
    },
    {
      "inputs": [
        {
          "internalType": "bytes4",
          "name": "interfaceId",
          "type": "bytes4"
        }
      ],
      "name": "supportsInterface",
      "outputs": [
        {
          "internalType": "bool",
          "name": "",
          "type": "bool"
        }
      ],
      "stateMutability": "view",
      "type": "function"
    },
    {
      "inputs": [],
      "name": "symbol",
      "outputs": [
        {
          "internalType": "string",
          "name": "",
          "type": "string"
        }
      ],
      "stateMutability": "view",
      "type": "function"
    },
    {
      "inputs": [
        {
          "internalType": "uint256",
          "name": "tokenId",
          "type": "uint256"
        }
      ],
      "name": "tokenURI",
      "outputs": [
        {
          "internalType": "string",
          "name": "",
          "type": "string"
        }
      ],
      "stateMutability": "view",
      "type": "function"
    },
    {
      "inputs": [
        {
          "internalType": "address",
          "name": "from",
          "type": "address"
        },
        {
          "internalType": "address",
          "name": "to",
          "type": "address"
        },
        {
          "internalType": "uint256",
          "name": "tokenId",
          "type": "uint256"
        }
      ],
      "name": "transferFrom",
      "outputs": [],
      "stateMutability": "nonpayable",
      "type": "function"
    }
  ],
  "bytecode": "0x60806040523480156200001157600080fd5b506040518060400160405280600f81526020017f4365727469666963617465204e465400000000000000000000000000000000008152506040518060400160405280600481526020017f434e46540000000000000000000000000000000000000000000000000000000081525081600090816200008f919062000324565b508060019081620000a1919062000324565b5050506200040b565b600081519050919050565b7f4e487b7100000000000000000000000000000000000000000000000000000000600052604160045260246000fd5b7f4e487b7100000000000000000000000000000000000000000000000000000000600052602260045260246000fd5b600060028204905060018216806200012c57607f821691505b602082108103620001425762000141620000e4565b5b50919050565b60008190508160005260206000209050919050565b60006020601f8301049050919050565b600082821b905092915050565b600060088302620001ac7fffffffffffffffffffffffffffffffffffffffffffffffffffffffffffffffff826200016d565b620001b886836200016d565b95508019841693508086168417925050509392505050565b6000819050919050565b6000819050919050565b600062000205620001ff620001f984620001d0565b620001da565b620001d0565b9050919050565b6000819050919050565b6200022183620001e4565b6200023962000230826200020c565b8484546200017a565b825550505050565b600090565b6200025062000241565b6200025d81848462000216565b505050565b5b8181101562000285576200027960008262000246565b60018101905062000263565b5050565b601f821115620002d4576200029e8162000148565b620002a9846200015d565b81016020851015620002b9578190505b620002d1620002c8856200015d565b83018262000262565b50505b505050565b600082821c905092915050565b6000620002f960001984600802620002d9565b1980831691505092915050565b6000620003148383620002e6565b9150826002028217905092915050565b6200032f82620000aa565b67ffffffffffffffff8111156200034b576200034a620000b5565b5b62000357825462000113565b6200036482828562000289565b600060209050601f8311600181146200039c576000841562000387578287015190505b62000393858262000306565b86555062000403565b601f198416620003ac8662000148565b60005b82811015620003d657848901518255600182019150602085019450602081019050620003af565b86831015620003f65784890151620003f2601f891682620002e6565b8355505b6001600288020188555050505b505050505050565b612ba1806200041b6000396000f3fe608060405234801561001057600080fd5b50600436106100ea5760003560e01c806370a082311161008c578063b88d4fde11610066578063b88d4fde1461025b578063c87b56dd14610277578063da2ed03e146102a7578063e985e9c5146102c3576100ea565b806370a08231146101f157806395d89b4114610221578063a22cb4651461023f576100ea565b8063095ea7b3116100c8578063095ea7b31461016d57806323b872dd1461018957806342842e0e146101a55780636352211e146101c1576100ea565b806301ffc9a7146100ef57806306fdde031461011f578063081812fc1461013d575b600080fd5b61010960048036038101906101049190611a1c565b6102f3565b6040516101169190611a64565b60405180910390f35b6101276103d5565b6040516101349190611b0f565b60405180910390f35b61015760048036038101906101529190611b67565b610467565b6040516101649190611bd5565b60405180910390f35b61018760048036038101906101829190611c1c565b6104ad565b005b6101a3600480360381019061019e9190611c5c565b6105c4565b005b6101bf60048036038101906101ba9190611c5c565b610624565b005b6101db60048036038101906101d69190611b67565b610644565b6040516101e89190611bd5565b60405180910390f35b61020b60048036038101906102069190611caf565b6106ca565b6040516102189190611ceb565b60405180910390f35b610229610781565b6040516102369190611b0f565b60405180910390f35b61025960048036038101906102549190611d32565b610813565b005b61027560048036038101906102709190611ea7565b610829565b005b610291600480360381019061028c9190611b67565b61088b565b60405161029e9190611b0f565b60405180910390f35b6102c160048036038101906102bc9190611f8a565b61099d565b005b6102dd60048036038101906102d89190611fd7565b610a55565b6040516102ea9190611a64565b60405180910390f35b60007f80ac58cd000000000000000000000000000000000000000000000000000000007bffffffffffffffffffffffffffffffffffffffffffffffffffffffff1916827bffffffffffffffffffffffffffffffffffffffffffffffffffffffff191614806103be57507f5b5e139f000000000000000000000000000000000000000000000000000000007bffffffffffffffffffffffffffffffffffffffffffffffffffffffff1916827bffffffffffffffffffffffffffffffffffffffffffffffffffffffff1916145b806103ce57506103cd82610ae9565b5b9050919050565b6060600080546103e490612046565b80601f016020809104026020016040519081016040528092919081815260200182805461041090612046565b801561045d5780601f106104325761010080835404028352916020019161045d565b820191906000526020600020905b81548152906001019060200180831161044057829003601f168201915b5050505050905090565b600061047282610b53565b6004600083815260200190815260200160002060009054906101000a900473ffffffffffffffffffffffffffffffffffffffff169050919050565b60006104b882610644565b90508073ffffffffffffffffffffffffffffffffffffffff168373ffffffffffffffffffffffffffffffffffffffff1603610528576040517f08c379a000000000000000000000000000000000000000000000000000000000815260040161051f906120e9565b60405180910390fd5b8073ffffffffffffffffffffffffffffffffffffffff16610547610b9e565b73ffffffffffffffffffffffffffffffffffffffff161480610576575061057581610570610b9e565b610a55565b5b6105b5576040517f08c379a00000000000000000000000000000000000000000000000000000000081526004016105ac9061217b565b60405180910390fd5b6105bf8383610ba6565b505050565b6105d56105cf610b9e565b82610c5f565b610614576040517f08c379a000000000000000000000000000000000000000000000000000000000815260040161060b9061220d565b60405180910390fd5b61061f838383610cf4565b505050565b61063f83838360405180602001604052806000815250610829565b505050565b60008061065083610fed565b9050600073ffffffffffffffffffffffffffffffffffffffff168173ffffffffffffffffffffffffffffffffffffffff16036106c1576040517f08c379a00000000000000000000000000000000000000000000000000000000081526004016106b890612279565b60405180910390fd5b80915050919050565b60008073ffffffffffffffffffffffffffffffffffffffff168273ffffffffffffffffffffffffffffffffffffffff160361073a576040517f08c379a00000000000000000000000000000000000000000000000000000000081526004016107319061230b565b60405180910390fd5b600360008373ffffffffffffffffffffffffffffffffffffffff1673ffffffffffffffffffffffffffffffffffffffff168152602001908152602001600020549050919050565b60606001805461079090612046565b80601f01602080910402602001604051908101604052809291908181526020018280546107bc90612046565b80156108095780601f106107de57610100808354040283529160200191610809565b820191906000526020600020905b8154815290600101906020018083116107ec57829003601f168201915b5050505050905090565b61082561081e610b9e565b838361102a565b5050565b61083a610834610b9e565b83610c5f565b610879576040517f08c379a00000000000000000000000000000000000000000000000000000000081526004016108709061220d565b60405180910390fd5b61088584848484611196565b50505050565b606061089682610b53565b60006006600084815260200190815260200160002080546108b690612046565b80601f01602080910402602001604051908101604052809291908181526020018280546108e290612046565b801561092f5780601f106109045761010080835404028352916020019161092f565b820191906000526020600020905b81548152906001019060200180831161091257829003601f168201915b5050505050905060006109406111f2565b90506000815103610955578192505050610998565b60008251111561098a578082604051602001610972929190612367565b60405160208183030381529060405292505050610998565b61099384611209565b925050505b919050565b6109a76007611271565b60006109b36007611287565b90506109bf3382611295565b610a0d8184848080601f016020809104026020016040519081016040528093929190818152602001838380828437600081840152601f19601f820116905080830192505050505050506112b3565b7f705332a8918666802fc1504f63ff1f002a5f6cedd30d59ad7ae0b5281aeb8dca8160003386866000604051610a48969594939291906123fd565b60405180910390a1505050565b6000600560008473ffffffffffffffffffffffffffffffffffffffff1673ffffffffffffffffffffffffffffffffffffffff16815260200190815260200160002060008373ffffffffffffffffffffffffffffffffffffffff1673ffffffffffffffffffffffffffffffffffffffff16815260200190815260200160002060009054906101000a900460ff16905092915050565b60007f01ffc9a7000000000000000000000000000000000000000000000000000000007bffffffffffffffffffffffffffffffffffffffffffffffffffffffff1916827bffffffffffffffffffffffffffffffffffffffffffffffffffffffff1916149050919050565b610b5c81611320565b610b9b576040517f08c379a0000000000000000000000000000000000000000000000000000000008152600401610b9290612279565b60405180910390fd5b50565b600033905090565b816004600083815260200190815260200160002060006101000a81548173ffffffffffffffffffffffffffffffffffffffff021916908373ffffffffffffffffffffffffffffffffffffffff160217905550808273ffffffffffffffffffffffffffffffffffffffff16610c1983610644565b73ffffffffffffffffffffffffffffffffffffffff167f8c5be1e5ebec7d5bd14f71427d1e84f3dd0314c0f7b2291e5b200ac8c7c3b92560405160405180910390a45050565b600080610c6b83610644565b90508073ffffffffffffffffffffffffffffffffffffffff168473ffffffffffffffffffffffffffffffffffffffff161480610cad5750610cac8185610a55565b5b80610ceb57508373ffffffffffffffffffffffffffffffffffffffff16610cd384610467565b73ffffffffffffffffffffffffffffffffffffffff16145b91505092915050565b8273ffffffffffffffffffffffffffffffffffffffff16610d1482610644565b73ffffffffffffffffffffffffffffffffffffffff1614610d6a576040517f08c379a0000000000000000000000000000000000000000000000000000000008152600401610d61906124cb565b60405180910390fd5b600073ffffffffffffffffffffffffffffffffffffffff168273ffffffffffffffffffffffffffffffffffffffff1603610dd9576040517f08c379a0000000000000000000000000000000000000000000000000000000008152600401610dd09061255d565b60405180910390fd5b610de68383836001611361565b8273ffffffffffffffffffffffffffffffffffffffff16610e0682610644565b73ffffffffffffffffffffffffffffffffffffffff1614610e5c576040517f08c379a0000000000000000000000000000000000000000000000000000000008152600401610e53906124cb565b60405180910390fd5b6004600082815260200190815260200160002060006101000a81549073ffffffffffffffffffffffffffffffffffffffff02191690556001600360008573ffffffffffffffffffffffffffffffffffffffff1673ffffffffffffffffffffffffffffffffffffffff168152602001908152602001600020600082825403925050819055506001600360008473ffffffffffffffffffffffffffffffffffffffff1673ffffffffffffffffffffffffffffffffffffffff16815260200190815260200160002060008282540192505081905550816002600083815260200190815260200160002060006101000a81548173ffffffffffffffffffffffffffffffffffffffff021916908373ffffffffffffffffffffffffffffffffffffffff160217905550808273ffffffffffffffffffffffffffffffffffffffff168473ffffffffffffffffffffffffffffffffffffffff167fddf252ad1be2c89b69c2b068fc378daa952ba7f163c4a11628f55a4df523b3ef60405160405180910390a4610fe88383836001611367565b505050565b60006002600083815260200190815260200160002060009054906101000a900473ffffffffffffffffffffffffffffffffffffffff169050919050565b8173ffffffffffffffffffffffffffffffffffffffff168373ffffffffffffffffffffffffffffffffffffffff1603611098576040517f08c379a000000000000000000000000000000000000000000000000000000000815260040161108f906125c9565b60405180910390fd5b80600560008573ffffffffffffffffffffffffffffffffffffffff1673ffffffffffffffffffffffffffffffffffffffff16815260200190815260200160002060008473ffffffffffffffffffffffffffffffffffffffff1673ffffffffffffffffffffffffffffffffffffffff16815260200190815260200160002060006101000a81548160ff0219169083151502179055508173ffffffffffffffffffffffffffffffffffffffff168373ffffffffffffffffffffffffffffffffffffffff167f17307eab39ab6107e8899845ad3d59bd9653f200f220920489ca2b5937696c31836040516111899190611a64565b60405180910390a3505050565b6111a1848484610cf4565b6111ad8484848461136d565b6111ec576040517f08c379a00000000000000000000000000000000000000000000000000000000081526004016111e39061265b565b60405180910390fd5b50505050565b606060405180602001604052806000815250905090565b606061121482610b53565b600061121e6111f2565b9050600081511161123e5760405180602001604052806000815250611269565b80611248846114f4565b604051602001611259929190612367565b6040516020818303038152906040525b915050919050565b6001816000016000828254019250508190555050565b600081600001549050919050565b6112af8282604051806020016040528060008152506115c2565b5050565b6112bc82611320565b6112fb576040517f08c379a00000000000000000000000000000000000000000000000000000000081526004016112f2906126ed565b60405180910390fd5b8060066000848152602001908152602001600020908161131b91906128af565b505050565b60008073ffffffffffffffffffffffffffffffffffffffff1661134283610fed565b73ffffffffffffffffffffffffffffffffffffffff1614159050919050565b50505050565b50505050565b600061138e8473ffffffffffffffffffffffffffffffffffffffff1661161d565b156114e7578373ffffffffffffffffffffffffffffffffffffffff1663150b7a026113b7610b9e565b8786866040518563ffffffff1660e01b81526004016113d994939291906129d6565b6020604051808303816000875af192505050801561141557506040513d601f19601f820116820180604052508101906114129190612a37565b60015b611497573d8060008114611445576040519150601f19603f3d011682016040523d82523d6000602084013e61144a565b606091505b50600081510361148f576040517f08c379a00000000000000000000000000000000000000000000000000000000081526004016114869061265b565b60405180910390fd5b805181602001fd5b63150b7a0260e01b7bffffffffffffffffffffffffffffffffffffffffffffffffffffffff1916817bffffffffffffffffffffffffffffffffffffffffffffffffffffffff1916149150506114ec565b600190505b949350505050565b60606000600161150384611640565b01905060008167ffffffffffffffff81111561152257611521611d7c565b5b6040519080825280601f01601f1916602001820160405280156115545781602001600182028036833780820191505090505b509050600082602001820190505b6001156115b7578080600190039150507f3031323334353637383961626364656600000000000000000000000000000000600a86061a8153600a85816115ab576115aa612a64565b5b04945060008503611562575b819350505050919050565b6115cc8383611793565b6115d9600084848461136d565b611618576040517f08c379a000000000000000000000000000000000000000000000000000000000815260040161160f9061265b565b60405180910390fd5b505050565b6000808273ffffffffffffffffffffffffffffffffffffffff163b119050919050565b600080600090507a184f03e93ff9f4daa797ed6e38ed64bf6a1f010000000000000000831061169e577a184f03e93ff9f4daa797ed6e38ed64bf6a1f010000000000000000838161169457611693612a64565b5b0492506040810190505b6d04ee2d6d415b85acef810000000083106116db576d04ee2d6d415b85acef810000000083816116d1576116d0612a64565b5b0492506020810190505b662386f26fc10000831061170a57662386f26fc100008381611700576116ff612a64565b5b0492506010810190505b6305f5e1008310611733576305f5e100838161172957611728612a64565b5b0492506008810190505b612710831061175857612710838161174e5761174d612a64565b5b0492506004810190505b6064831061177b576064838161177157611770612a64565b5b0492506002810190505b600a831061178a576001810190505b80915050919050565b600073ffffffffffffffffffffffffffffffffffffffff168273ffffffffffffffffffffffffffffffffffffffff1603611802576040517f08c379a00000000000000000000000000000000000000000000000000000000081526004016117f990612adf565b60405180910390fd5b61180b81611320565b1561184b576040517f08c379a000000000000000000000000000000000000000000000000000000000815260040161184290612b4b565b60405180910390fd5b611859600083836001611361565b61186281611320565b156118a2576040517f08c379a000000000000000000000000000000000000000000000000000000000815260040161189990612b4b565b60405180910390fd5b6001600360008473ffffffffffffffffffffffffffffffffffffffff1673ffffffffffffffffffffffffffffffffffffffff16815260200190815260200160002060008282540192505081905550816002600083815260200190815260200160002060006101000a81548173ffffffffffffffffffffffffffffffffffffffff021916908373ffffffffffffffffffffffffffffffffffffffff160217905550808273ffffffffffffffffffffffffffffffffffffffff16600073ffffffffffffffffffffffffffffffffffffffff167fddf252ad1be2c89b69c2b068fc378daa952ba7f163c4a11628f55a4df523b3ef60405160405180910390a46119ac600083836001611367565b5050565b6000604051905090565b600080fd5b600080fd5b60007fffffffff0000000000000000000000000000000000000000000000000000000082169050919050565b6119f9816119c4565b8114611a0457600080fd5b50565b600081359050611a16816119f0565b92915050565b600060208284031215611a3257611a316119ba565b5b6000611a4084828501611a07565b91505092915050565b60008115159050919050565b611a5e81611a49565b82525050565b6000602082019050611a796000830184611a55565b92915050565b600081519050919050565b600082825260208201905092915050565b60005b83811015611ab9578082015181840152602081019050611a9e565b60008484015250505050565b6000601f19601f8301169050919050565b6000611ae182611a7f565b611aeb8185611a8a565b9350611afb818560208601611a9b565b611b0481611ac5565b840191505092915050565b60006020820190508181036000830152611b298184611ad6565b905092915050565b6000819050919050565b611b4481611b31565b8114611b4f57600080fd5b50565b600081359050611b6181611b3b565b92915050565b600060208284031215611b7d57611b7c6119ba565b5b6000611b8b84828501611b52565b91505092915050565b600073ffffffffffffffffffffffffffffffffffffffff82169050919050565b6000611bbf82611b94565b9050919050565b611bcf81611bb4565b82525050565b6000602082019050611bea6000830184611bc6565b92915050565b611bf981611bb4565b8114611c0457600080fd5b50565b600081359050611c1681611bf0565b92915050565b60008060408385031215611c3357611c326119ba565b5b6000611c4185828601611c07565b9250506020611c5285828601611b52565b9150509250929050565b600080600060608486031215611c7557611c746119ba565b5b6000611c8386828701611c07565b9350506020611c9486828701611c07565b9250506040611ca586828701611b52565b9150509250925092565b600060208284031215611cc557611cc46119ba565b5b6000611cd384828501611c07565b91505092915050565b611ce581611b31565b82525050565b6000602082019050611d006000830184611cdc565b92915050565b611d0f81611a49565b8114611d1a57600080fd5b50565b600081359050611d2c81611d06565b92915050565b60008060408385031215611d4957611d486119ba565b5b6000611d5785828601611c07565b9250506020611d6885828601611d1d565b9150509250929050565b600080fd5b600080fd5b7f4e487b7100000000000000000000000000000000000000000000000000000000600052604160045260246000fd5b611db482611ac5565b810181811067ffffffffffffffff82111715611dd357611dd2611d7c565b5b80604052505050565b6000611de66119b0565b9050611df28282611dab565b919050565b600067ffffffffffffffff821115611e1257611e11611d7c565b5b611e1b82611ac5565b9050602081019050919050565b82818337600083830152505050565b6000611e4a611e4584611df7565b611ddc565b905082815260208101848484011115611e6657611e65611d77565b5b611e71848285611e28565b509392505050565b600082601f830112611e8e57611e8d611d72565b5b8135611e9e848260208601611e37565b91505092915050565b60008060008060808587031215611ec157611ec06119ba565b5b6000611ecf87828801611c07565b9450506020611ee087828801611c07565b9350506040611ef187828801611b52565b925050606085013567ffffffffffffffff811115611f1257611f116119bf565b5b611f1e87828801611e79565b91505092959194509250565b600080fd5b600080fd5b60008083601f840112611f4a57611f49611d72565b5b8235905067ffffffffffffffff811115611f6757611f66611f2a565b5b602083019150836001820283011115611f8357611f82611f2f565b5b9250929050565b60008060208385031215611fa157611fa06119ba565b5b600083013567ffffffffffffffff811115611fbf57611fbe6119bf565b5b611fcb85828601611f34565b92509250509250929050565b60008060408385031215611fee57611fed6119ba565b5b6000611ffc85828601611c07565b925050602061200d85828601611c07565b9150509250929050565b7f4e487b7100000000000000000000000000000000000000000000000000000000600052602260045260246000fd5b6000600282049050600182168061205e57607f821691505b60208210810361207157612070612017565b5b50919050565b7f4552433732313a20617070726f76616c20746f2063757272656e74206f776e6560008201527f7200000000000000000000000000000000000000000000000000000000000000602082015250565b60006120d3602183611a8a565b91506120de82612077565b604082019050919050565b60006020820190508181036000830152612102816120c6565b9050919050565b7f4552433732313a20617070726f76652063616c6c6572206973206e6f7420746f60008201527f6b656e206f776e6572206f7220617070726f76656420666f7220616c6c000000602082015250565b6000612165603d83611a8a565b915061217082612109565b604082019050919050565b6000602082019050818103600083015261219481612158565b9050919050565b7f4552433732313a2063616c6c6572206973206e6f7420746f6b656e206f776e6560008201527f72206f7220617070726f76656400000000000000000000000000000000000000602082015250565b60006121f7602d83611a8a565b91506122028261219b565b604082019050919050565b60006020820190508181036000830152612226816121ea565b9050919050565b7f4552433732313a20696e76616c696420746f6b656e2049440000000000000000600082015250565b6000612263601883611a8a565b915061226e8261222d565b602082019050919050565b6000602082019050818103600083015261229281612256565b9050919050565b7f4552433732313a2061646472657373207a65726f206973206e6f74206120766160008201527f6c6964206f776e65720000000000000000000000000000000000000000000000602082015250565b60006122f5602983611a8a565b915061230082612299565b604082019050919050565b60006020820190508181036000830152612324816122e8565b9050919050565b600081905092915050565b600061234182611a7f565b61234b818561232b565b935061235b818560208601611a9b565b80840191505092915050565b60006123738285612336565b915061237f8284612336565b91508190509392505050565b60006123978385611a8a565b93506123a4838584611e28565b6123ad83611ac5565b840190509392505050565b6000819050919050565b6000819050919050565b60006123e76123e26123dd846123b8565b6123c2565b611b31565b9050919050565b6123f7816123cc565b82525050565b600060a0820190506124126000830189611cdc565b61241f6020830188611bc6565b61242c6040830187611bc6565b818103606083015261243f81858761238b565b905061244e60808301846123ee565b979650505050505050565b7f4552433732313a207472616e736665722066726f6d20696e636f72726563742060008201527f6f776e6572000000000000000000000000000000000000000000000000000000602082015250565b60006124b5602583611a8a565b91506124c082612459565b604082019050919050565b600060208201905081810360008301526124e4816124a8565b9050919050565b7f4552433732313a207472616e7366657220746f20746865207a65726f2061646460008201527f7265737300000000000000000000000000000000000000000000000000000000602082015250565b6000612547602483611a8a565b9150612552826124eb565b604082019050919050565b600060208201905081810360008301526125768161253a565b9050919050565b7f4552433732313a20617070726f766520746f2063616c6c657200000000000000600082015250565b60006125b3601983611a8a565b91506125be8261257d565b602082019050919050565b600060208201905081810360008301526125e2816125a6565b9050919050565b7f4552433732313a207472616e7366657220746f206e6f6e20455243373231526560008201527f63656976657220696d706c656d656e7465720000000000000000000000000000602082015250565b6000612645603283611a8a565b9150612650826125e9565b604082019050919050565b6000602082019050818103600083015261267481612638565b9050919050565b7f45524337323155524953746f726167653a2055524920736574206f66206e6f6e60008201527f6578697374656e7420746f6b656e000000000000000000000000000000000000602082015250565b60006126d7602e83611a8a565b91506126e28261267b565b604082019050919050565b60006020820190508181036000830152612706816126ca565b9050919050565b60008190508160005260206000209050919050565b60006020601f8301049050919050565b600082821b905092915050565b60006008830261276f7fffffffffffffffffffffffffffffffffffffffffffffffffffffffffffffffff82612732565b6127798683612732565b95508019841693508086168417925050509392505050565b60006127ac6127a76127a284611b31565b6123c2565b611b31565b9050919050565b6000819050919050565b6127c683612791565b6127da6127d2826127b3565b84845461273f565b825550505050565b600090565b6127ef6127e2565b6127fa8184846127bd565b505050565b5b8181101561281e576128136000826127e7565b600181019050612800565b5050565b601f821115612863576128348161270d565b61283d84612722565b8101602085101561284c578190505b61286061285885612722565b8301826127ff565b50505b505050565b600082821c905092915050565b600061288660001984600802612868565b1980831691505092915050565b600061289f8383612875565b9150826002028217905092915050565b6128b882611a7f565b67ffffffffffffffff8111156128d1576128d0611d7c565b5b6128db8254612046565b6128e6828285612822565b600060209050601f8311600181146129195760008415612907578287015190505b6129118582612893565b865550612979565b601f1984166129278661270d565b60005b8281101561294f5784890151825560018201915060208501945060208101905061292a565b8683101561296c5784890151612968601f891682612875565b8355505b6001600288020188555050505b505050505050565b600081519050919050565b600082825260208201905092915050565b60006129a882612981565b6129b2818561298c565b93506129c2818560208601611a9b565b6129cb81611ac5565b840191505092915050565b60006080820190506129eb6000830187611bc6565b6129f86020830186611bc6565b612a056040830185611cdc565b8181036060830152612a17818461299d565b905095945050505050565b600081519050612a31816119f0565b92915050565b600060208284031215612a4d57612a4c6119ba565b5b6000612a5b84828501612a22565b91505092915050565b7f4e487b7100000000000000000000000000000000000000000000000000000000600052601260045260246000fd5b7f4552433732313a206d696e7420746f20746865207a65726f2061646472657373600082015250565b6000612ac9602083611a8a565b9150612ad482612a93565b602082019050919050565b60006020820190508181036000830152612af881612abc565b9050919050565b7f4552433732313a20746f6b656e20616c7265616479206d696e74656400000000600082015250565b6000612b35601c83611a8a565b9150612b4082612aff565b602082019050919050565b60006020820190508181036000830152612b6481612b28565b905091905056fea2646970667358221220be0536e8e5781f5899a3b8685b1e93c9a69eb2faac9b7371e4e02a34d8d1db9464736f6c63430008120033",
  "linkReferences": {},
  "deployedLinkReferences": {}
}